{
  "contractName": "PublicRecords",
  "abi": [
    {
      "anonymous": false,
      "inputs": [
        {
          "indexed": false,
          "name": "timestamp",
          "type": "uint256"
        },
        {
          "indexed": false,
          "name": "name",
          "type": "bytes32"
        },
        {
          "indexed": false,
          "name": "dateFounded",
          "type": "bytes32"
        },
        {
          "indexed": false,
          "name": "county",
          "type": "bytes32"
        },
        {
          "indexed": false,
          "name": "upi",
          "type": "bytes32"
        },
        {
          "indexed": false,
          "name": "category",
          "type": "bytes32"
        }
      ],
      "name": "AddedInstitution",
      "type": "event"
    },
    {
      "anonymous": false,
      "inputs": [
        {
          "indexed": false,
          "name": "timestamp",
          "type": "uint256"
        },
        {
          "indexed": false,
          "name": "upi",
          "type": "bytes32"
        },
        {
          "indexed": false,
          "name": "english",
          "type": "uint256"
        },
        {
          "indexed": false,
          "name": "kiswahili",
          "type": "uint256"
        },
        {
          "indexed": false,
          "name": "math",
          "type": "uint256"
        },
        {
          "indexed": false,
          "name": "date",
          "type": "bytes32"
        },
        {
          "indexed": false,
          "name": "institution",
          "type": "bytes32"
        }
      ],
      "name": "AddedECDERecord",
      "type": "event"
    },
    {
      "anonymous": false,
      "inputs": [
        {
          "indexed": false,
          "name": "timestamp",
          "type": "uint256"
        },
        {
          "indexed": false,
          "name": "upi",
          "type": "bytes32"
        },
        {
          "indexed": false,
          "name": "english",
          "type": "uint256"
        },
        {
          "indexed": false,
          "name": "kiswahili",
          "type": "uint256"
        },
        {
          "indexed": false,
          "name": "math",
          "type": "uint256"
        },
        {
          "indexed": false,
          "name": "science",
          "type": "uint256"
        },
        {
          "indexed": false,
          "name": "socialStudies",
          "type": "uint256"
        },
        {
          "indexed": false,
          "name": "date",
          "type": "bytes32"
        },
        {
          "indexed": false,
          "name": "institution",
          "type": "bytes32"
        }
      ],
      "name": "AddedPrimarySchoolRecord",
      "type": "event"
    },
    {
      "anonymous": false,
      "inputs": [
        {
          "indexed": false,
          "name": "timestamp",
          "type": "uint256"
        },
        {
          "indexed": false,
          "name": "upi",
          "type": "bytes32"
        },
        {
          "indexed": false,
          "name": "english",
          "type": "uint256"
        },
        {
          "indexed": false,
          "name": "kiswahili",
          "type": "uint256"
        },
        {
          "indexed": false,
          "name": "math",
          "type": "uint256"
        },
        {
          "indexed": false,
          "name": "biology",
          "type": "uint256"
        },
        {
          "indexed": false,
          "name": "chemistry",
          "type": "uint256"
        },
        {
          "indexed": false,
          "name": "physics",
          "type": "uint256"
        },
        {
          "indexed": false,
          "name": "history",
          "type": "uint256"
        },
        {
          "indexed": false,
          "name": "geography",
          "type": "uint256"
        },
        {
          "indexed": false,
          "name": "religion",
          "type": "uint256"
        },
        {
          "indexed": false,
          "name": "business",
          "type": "uint256"
        },
        {
          "indexed": false,
          "name": "date",
          "type": "bytes32"
        },
        {
          "indexed": false,
          "name": "institution",
          "type": "bytes32"
        }
      ],
      "name": "AddedSecondarySchoolRecord",
      "type": "event"
    },
    {
      "anonymous": false,
      "inputs": [
        {
          "indexed": false,
          "name": "timestamp",
          "type": "uint256"
        },
        {
          "indexed": false,
          "name": "upi",
          "type": "bytes32"
        },
        {
          "indexed": false,
          "name": "name",
          "type": "bytes32"
        },
        {
          "indexed": false,
          "name": "grade",
          "type": "bytes32"
        },
        {
          "indexed": false,
          "name": "date",
          "type": "bytes32"
        },
        {
          "indexed": false,
          "name": "institution",
          "type": "bytes32"
        }
      ],
      "name": "AddedUndergraduateRecord",
      "type": "event"
    },
    {
      "constant": false,
      "inputs": [
        {
          "name": "name",
          "type": "bytes32"
        },
        {
          "name": "dateFounded",
          "type": "bytes32"
        },
        {
          "name": "county",
          "type": "bytes32"
        },
        {
          "name": "upi",
          "type": "bytes32"
        },
        {
          "name": "category",
          "type": "bytes32"
        }
      ],
      "name": "addInstitution",
      "outputs": [],
      "payable": false,
      "stateMutability": "nonpayable",
      "type": "function"
    },
    {
      "constant": true,
      "inputs": [
        {
          "name": "upi",
          "type": "bytes32"
        }
      ],
      "name": "getInstitution",
      "outputs": [
        {
          "name": "",
          "type": "uint256"
        },
        {
          "name": "",
          "type": "bytes32"
        },
        {
          "name": "",
          "type": "bytes32"
        },
        {
          "name": "",
          "type": "bytes32"
        },
        {
          "name": "",
          "type": "bytes32"
        },
        {
          "name": "",
          "type": "bytes32"
        }
      ],
      "payable": false,
      "stateMutability": "view",
      "type": "function"
    },
    {
      "constant": false,
      "inputs": [
        {
          "name": "upi",
          "type": "bytes32"
        },
        {
          "name": "english",
          "type": "uint256"
        },
        {
          "name": "kiswahili",
          "type": "uint256"
        },
        {
          "name": "math",
          "type": "uint256"
        },
        {
          "name": "date",
          "type": "bytes32"
        },
        {
          "name": "institution",
          "type": "bytes32"
        }
      ],
      "name": "addECDECRecord",
      "outputs": [],
      "payable": false,
      "stateMutability": "nonpayable",
      "type": "function"
    },
    {
      "constant": true,
      "inputs": [
        {
          "name": "upi",
          "type": "bytes32"
        }
      ],
      "name": "getECDERecord",
      "outputs": [
        {
          "name": "",
          "type": "uint256"
        },
        {
          "name": "",
          "type": "bytes32"
        },
        {
          "name": "",
          "type": "uint256"
        },
        {
          "name": "",
          "type": "uint256"
        },
        {
          "name": "",
          "type": "uint256"
        },
        {
          "name": "",
          "type": "bytes32"
        },
        {
          "name": "",
          "type": "bytes32"
        }
      ],
      "payable": false,
      "stateMutability": "view",
      "type": "function"
    },
    {
      "constant": false,
      "inputs": [
        {
          "name": "upi",
          "type": "bytes32"
        },
        {
          "name": "english",
          "type": "uint256"
        },
        {
          "name": "kiswahili",
          "type": "uint256"
        },
        {
          "name": "math",
          "type": "uint256"
        },
        {
          "name": "science",
          "type": "uint256"
        },
        {
          "name": "socialStudies",
          "type": "uint256"
        },
        {
          "name": "date",
          "type": "bytes32"
        },
        {
          "name": "institution",
          "type": "bytes32"
        }
      ],
      "name": "addPrimarySchoolRecord",
      "outputs": [],
      "payable": false,
      "stateMutability": "nonpayable",
      "type": "function"
    },
    {
      "constant": true,
      "inputs": [
        {
          "name": "upi",
          "type": "bytes32"
        }
      ],
      "name": "getPrimarySchoolInfo",
      "outputs": [
        {
          "name": "",
          "type": "uint256"
        },
        {
          "name": "",
          "type": "bytes32"
        },
        {
          "name": "",
          "type": "bytes32"
        },
        {
          "name": "",
          "type": "bytes32"
        }
      ],
      "payable": false,
      "stateMutability": "view",
      "type": "function"
    },
    {
      "constant": true,
      "inputs": [
        {
          "name": "upi",
          "type": "bytes32"
        }
      ],
      "name": "getPrimarySchoolSubjects",
      "outputs": [
        {
          "name": "",
          "type": "uint256"
        },
        {
          "name": "",
          "type": "uint256"
        },
        {
          "name": "",
          "type": "uint256"
        },
        {
          "name": "",
          "type": "uint256"
        },
        {
          "name": "",
          "type": "uint256"
        }
      ],
      "payable": false,
      "stateMutability": "view",
      "type": "function"
    },
    {
      "constant": false,
      "inputs": [
        {
          "name": "upi",
          "type": "bytes32"
        },
        {
          "name": "english",
          "type": "uint256"
        },
        {
          "name": "kiswahili",
          "type": "uint256"
        },
        {
          "name": "math",
          "type": "uint256"
        },
        {
          "name": "biology",
          "type": "uint256"
        },
        {
          "name": "chemistry",
          "type": "uint256"
        },
        {
          "name": "physics",
          "type": "uint256"
        },
        {
          "name": "history",
          "type": "uint256"
        },
        {
          "name": "geography",
          "type": "uint256"
        },
        {
          "name": "religion",
          "type": "uint256"
        },
        {
          "name": "business",
          "type": "uint256"
        },
        {
          "name": "date",
          "type": "bytes32"
        },
        {
          "name": "institution",
          "type": "bytes32"
        }
      ],
      "name": "addSecondarySchoolRecord",
      "outputs": [],
      "payable": false,
      "stateMutability": "nonpayable",
      "type": "function"
    },
    {
      "constant": true,
      "inputs": [
        {
          "name": "upi",
          "type": "bytes32"
        }
      ],
      "name": "getSecondarySchoolInfo",
      "outputs": [
        {
          "name": "",
          "type": "uint256"
        },
        {
          "name": "",
          "type": "bytes32"
        },
        {
          "name": "",
          "type": "bytes32"
        },
        {
          "name": "",
          "type": "bytes32"
        }
      ],
      "payable": false,
      "stateMutability": "view",
      "type": "function"
    },
    {
      "constant": true,
      "inputs": [
        {
          "name": "upi",
          "type": "bytes32"
        }
      ],
      "name": "getHumanitites",
      "outputs": [
        {
          "name": "",
          "type": "uint256"
        },
        {
          "name": "",
          "type": "uint256"
        },
        {
          "name": "",
          "type": "uint256"
        }
      ],
      "payable": false,
      "stateMutability": "view",
      "type": "function"
    },
    {
      "constant": true,
      "inputs": [
        {
          "name": "upi",
          "type": "bytes32"
        }
      ],
      "name": "getCoreSubjects",
      "outputs": [
        {
          "name": "",
          "type": "uint256"
        },
        {
          "name": "",
          "type": "uint256"
        },
        {
          "name": "",
          "type": "uint256"
        }
      ],
      "payable": false,
      "stateMutability": "view",
      "type": "function"
    },
    {
      "constant": true,
      "inputs": [
        {
          "name": "upi",
          "type": "bytes32"
        }
      ],
      "name": "getSciences",
      "outputs": [
        {
          "name": "",
          "type": "uint256"
        },
        {
          "name": "",
          "type": "uint256"
        },
        {
          "name": "",
          "type": "uint256"
        }
      ],
      "payable": false,
      "stateMutability": "view",
      "type": "function"
    },
    {
      "constant": true,
      "inputs": [
        {
          "name": "upi",
          "type": "bytes32"
        }
      ],
      "name": "getElectives",
      "outputs": [
        {
          "name": "",
          "type": "uint256"
        }
      ],
      "payable": false,
      "stateMutability": "view",
      "type": "function"
    },
    {
      "constant": false,
      "inputs": [
        {
          "name": "upi",
          "type": "bytes32"
        },
        {
          "name": "name",
          "type": "bytes32"
        },
        {
          "name": "grade",
          "type": "bytes32"
        },
        {
          "name": "date",
          "type": "bytes32"
        },
        {
          "name": "institution",
          "type": "bytes32"
        }
      ],
      "name": "addUndergraduateRecord",
      "outputs": [],
      "payable": false,
      "stateMutability": "nonpayable",
      "type": "function"
    },
    {
      "constant": true,
      "inputs": [
        {
          "name": "upi",
          "type": "bytes32"
        }
      ],
      "name": "getUndergroundRecord",
      "outputs": [
        {
          "name": "",
          "type": "uint256"
        },
        {
          "name": "",
          "type": "bytes32"
        },
        {
          "name": "",
          "type": "bytes32"
        },
        {
          "name": "",
          "type": "bytes32"
        },
        {
          "name": "",
          "type": "bytes32"
        },
        {
          "name": "",
          "type": "bytes32"
        }
      ],
      "payable": false,
      "stateMutability": "view",
      "type": "function"
    }
  ],
  "bytecode": "0x608060405234801561001057600080fd5b50610e7d806100206000396000f3006080604052600436106100da5763ffffffff7c010000000000000000000000000000000000000000000000000000000060003504166307ea492881146100df57806313cff4241461011557806326d68d9c1461013b57806334a5b4af14610162578063396fc0e6146101a057806348d30065146101f05780635ea344ec1461021a578063689b01d3146102655780637cd281b61461027d5780639b9c6ad014610295578063a8184887146102b9578063a85e5657146102d1578063d6156b04146102e9578063e3bd829b1461032c578063ebda3abe1461036d575b600080fd5b3480156100eb57600080fd5b506100f760043561039a565b60408051938452602084019290925282820152519081900360600190f35b34801561012157600080fd5b506101396004356024356044356064356084356103d8565b005b34801561014757600080fd5b5061013960043560243560443560643560843560a4356104ad565b34801561016e57600080fd5b5061017a600435610627565b604080519485526020850193909352838301919091526060830152519081900360800190f35b3480156101ac57600080fd5b506101b860043561066d565b604080519788526020880196909652868601949094526060860192909252608085015260a084015260c0830152519081900360e00190f35b3480156101fc57600080fd5b506102086004356106d0565b60408051918252519081900360200190f35b34801561022657600080fd5b506102326004356106fc565b604080519687526020870195909552858501939093526060850191909152608084015260a0830152519081900360c00190f35b34801561027157600080fd5b506100f7600435610753565b34801561028957600080fd5b506100f7600435610791565b3480156102a157600080fd5b506101396004356024356044356064356084356107d4565b3480156102c557600080fd5b5061023260043561092f565b3480156102dd57600080fd5b5061017a600435610989565b3480156102f557600080fd5b506103016004356109cf565b6040805195865260208601949094528484019290925260608401526080830152519081900360a00190f35b34801561033857600080fd5b5061013960043560243560443560643560843560a43560c43560e4356101043561012435610144356101643561018435610a24565b34801561037957600080fd5b5061013960043560243560443560643560843560a43560c43560e435610c54565b60008060006103a884610e02565b15156103b357600080fd5b50505060009081526003602052604090206008810154600a8201546009909201549092565b6103e182610e15565b156103eb57600080fd5b6040805160c081810183524280835260208084018a81528486018a815260608087018b815260808089018c815260a0808b018d815260008f8152808a528d90209b518c55965160018c0155945160028b0155915160038a015590516004890155925160059097019690965586519384529183018b90528286018a905293820188905292810186905291820184905291517f284a832c49517c4be883119c7dcc6241aff8e69fb9f6ee87329208116b268561929181900390910190a15050505050565b6104b686610e24565b156104c057600080fd5b6101006040519081016040528042815260200187600019168152602001868152602001858152602001848152602001836000191681526020018260001916815260200160001515815250600160008860001916600019168152602001908152602001600020600082015181600001556020820151816001019060001916905560408201518160020155606082015181600301556080820151816004015560a0820151816005019060001916905560c0820151816006019060001916905560e08201518160070160006101000a81548160ff0219169083151502179055509050507fe0dc7dae78e05b05f1d06405035db87a965ccd50d8d48726897d24e53b1a868b428787878787876040518088815260200187600019166000191681526020018681526020018581526020018481526020018360001916600019168152602001826000191660001916815260200197505050505050505060405180910390a1505050505050565b60008060008061063685610e33565b151561064157600080fd5b505050600091825250600260205260409020805460018201546007830154600890930154919390929190565b600080600080600080600061068188610e24565b151561068c57600080fd5b505050600094855250506001602081905260409093208054938101546002820154600383015460048401546005850154600690950154979893979296509094509291565b60006106db82610e02565b15156106e657600080fd5b506000908152600360205260409020600b015490565b60008060008060008061070e87610e15565b151561071957600080fd5b5050506000938452505050602081905260409020805460018201546002830154600384015460048501546005909501549395929491939092565b600080600061076184610e02565b151561076c57600080fd5b5050506000908152600360205260409020600581015460068201546007909201549092565b600080600061079f84610e02565b15156107aa57600080fd5b50505060008181526003602081905260409091206002810154918101546004909101549193909250565b6107dd85610e42565b156107e757600080fd5b60c060405190810160405280428152602001866000191681526020018560001916815260200184600019168152602001836000191681526020018260001916815250600460008760001916600019168152602001908152602001600020600082015181600001556020820151816001019060001916905560408201518160020190600019169055606082015181600301906000191690556080820151816004019060001916905560a082015181600501906000191690559050507f657b9516be8391fdf74d4e3dd47ff2d3dd771245cb64fd5f40d2e55482ccda714286868686866040518087815260200186600019166000191681526020018560001916600019168152602001846000191660001916815260200183600019166000191681526020018260001916600019168152602001965050505050505060405180910390a15050505050565b60008060008060008061094187610e42565b151561094c57600080fd5b5050506000938452505060046020819052604090922080546001820154600283015460038401549584015460059094015492969195909450929190565b60008060008061099885610e02565b15156109a357600080fd5b50505060009182525060036020526040902080546001820154600c830154600d90930154919390929190565b60008060008060006109e086610e33565b15156109eb57600080fd5b50505060009283525050600260208190526040909120908101546003820154600483015460058401546006909401549294919390929091565b610a2d8d610e02565b15610a3757600080fd5b6101e0604051908101604052804281526020018e6000191681526020018d81526020018c81526020018b81526020018a8152602001898152602001888152602001878152602001868152602001858152602001848152602001836000191681526020018260001916815260200160001515815250600360008f60001916600019168152602001908152602001600020600082015181600001556020820151816001019060001916905560408201518160020155606082015181600301556080820151816004015560a0820151816005015560c0820151816006015560e082015181600701556101008201518160080155610120820151816009015561014082015181600a015561016082015181600b015561018082015181600c01906000191690556101a082015181600d01906000191690556101c082015181600e0160006101000a81548160ff0219169083151502179055509050507fc86afb88589179963a5f13e2ec3e82de99441bfe1d9fa55731d47df7928cf403428e8e8e8e8e8e8e8e8e8e8e8e8e604051808f81526020018e600019166000191681526020018d81526020018c81526020018b81526020018a8152602001898152602001888152602001878152602001868152602001858152602001848152602001836000191660001916815260200182600019166000191681526020019e50505050505050505050505050505060405180910390a150505050505050505050505050565b610c5d88610e33565b15610c6757600080fd5b6101406040519081016040528042815260200189600019168152602001888152602001878152602001868152602001858152602001848152602001836000191681526020018260001916815260200160001515815250600260008a60001916600019168152602001908152602001600020600082015181600001556020820151816001019060001916905560408201518160020155606082015181600301556080820151816004015560a0820151816005015560c0820151816006015560e0820151816007019060001916905561010082015181600801906000191690556101208201518160090160006101000a81548160ff0219169083151502179055509050507f82332bc3833abaea3976173e313d9c7e1d72d12a40fac68ddbfc2386ae01b28b428989898989898989604051808a8152602001896000191660001916815260200188815260200187815260200186815260200185815260200184815260200183600019166000191681526020018260001916600019168152602001995050505050505050505060405180910390a15050505050505050565b600081815260036020525b506001919050565b60008181526020819052610e0d565b60008181526001602052610e0d565b60008181526002602052610e0d565b60008181526004602052610e0d5600a165627a7a723058204550825955f8619d3c7c0b38881945b34b8ee4ae335ab889c4545d55ccd6e94d0029",
  "source": "pragma solidity ^0.4.22;\r\n\r\ncontract PublicRecords {\r\n\r\n    struct Institution {\r\n        uint256 timestamp;\r\n        bytes32 name;\r\n        bytes32 dateFounded;\r\n        bytes32 county;\r\n        bytes32 upi;\r\n        bytes32 category;\r\n    }\r\n\r\n    event AddedInstitution(\r\n        uint256 timestamp,\r\n        bytes32 name,\r\n        bytes32 dateFounded,\r\n        bytes32 county,\r\n        bytes32 upi,\r\n        bytes32 category);\r\n\r\n    mapping(bytes32 => Institution) institutions;\r\n\r\n    struct ECDERecord {\r\n        uint256 timestamp;\r\n        bytes32 upi;\r\n        uint english;\r\n        uint kiswahili;\r\n        uint math;\r\n        bytes32 date;\r\n        bytes32 institution;\r\n        bool repeater;\r\n\r\n    }\r\n\r\n    event AddedECDERecord(\r\n        uint256 timestamp,\r\n        bytes32 upi,\r\n        uint english,\r\n        uint kiswahili,\r\n        uint math,\r\n        bytes32 date,\r\n        bytes32 institution);\r\n\r\n    mapping(bytes32 => ECDERecord) ecdeRecords;\r\n\r\n    struct PrimarySchoolRecord {\r\n        uint256 timestamp;\r\n        bytes32 upi;\r\n        uint english;\r\n        uint kiswahili;\r\n        uint math;\r\n        uint science;\r\n        uint socialStudies;\r\n        bytes32 date;\r\n        bytes32 institution;\r\n        bool repeater;\r\n    }\r\n\r\n    event AddedPrimarySchoolRecord(\r\n        uint256 timestamp,\r\n        bytes32 upi,\r\n        uint english,\r\n        uint kiswahili,\r\n        uint math,\r\n        uint science,\r\n        uint socialStudies,\r\n        bytes32 date,\r\n        bytes32 institution\r\n    );\r\n\r\n    mapping(bytes32 => PrimarySchoolRecord) primarySchoolRecords;\r\n\r\n    struct SecondarySchoolRecord {\r\n        uint256 timestamp;\r\n        bytes32 upi;\r\n        uint english;\r\n        uint kiswahili;\r\n        uint math;\r\n        uint biology;\r\n        uint chemistry;\r\n        uint physics;\r\n        uint history;\r\n        uint geography;\r\n        uint religion;\r\n        uint business;\r\n        bytes32 date;\r\n        bytes32 institution;\r\n        bool repeater;\r\n    }\r\n\r\n    event AddedSecondarySchoolRecord(\r\n        uint256 timestamp,\r\n        bytes32 upi,\r\n        uint english,\r\n        uint kiswahili,\r\n        uint math,\r\n        uint biology,\r\n        uint chemistry,\r\n        uint physics,\r\n        uint history,\r\n        uint geography,\r\n        uint religion,\r\n        uint business,\r\n        bytes32 date,\r\n        bytes32 institution\r\n    );\r\n\r\n    mapping(bytes32 => SecondarySchoolRecord) secondarySchools;\r\n\r\n    struct UndergraduateRecord {\r\n        uint256 timestamp;\r\n        bytes32 upi;\r\n        bytes32 name;\r\n        bytes32 grade;\r\n        bytes32 date;\r\n        bytes32 institution;\r\n    }\r\n\r\n    event AddedUndergraduateRecord(\r\n        uint256 timestamp,\r\n        bytes32 upi,\r\n        bytes32 name,\r\n        bytes32 grade,\r\n        bytes32 date,\r\n        bytes32 institution\r\n    );\r\n\r\n    mapping(bytes32 => UndergraduateRecord) undergraduateRecords;\r\n\r\n    //add an institution\r\n    function addInstitution(\r\n        bytes32 name,\r\n        bytes32 dateFounded,\r\n        bytes32 county,\r\n        bytes32 upi,\r\n        bytes32 category\r\n    ) public {\r\n        require(!isInstitutionExists(upi)) ;\r\n        institutions[upi] = Institution(now, name, dateFounded, county, upi, category);\r\n        emit AddedInstitution(now, name, dateFounded, county, upi, category);\r\n    }\r\n    //get an institution\r\n    function getInstitution(bytes32 upi) public constant returns (uint, bytes32, bytes32, bytes32, bytes32, bytes32){\r\n        require (isInstitutionExists(upi));\r\n        return (\r\n        institutions[upi].timestamp,\r\n        institutions[upi].name,\r\n        institutions[upi].dateFounded,\r\n        institutions[upi].county,\r\n        institutions[upi].upi,\r\n        institutions[upi].category);\r\n\r\n    }\r\n    //is institution exist\r\n    function isInstitutionExists(bytes32 upi) private constant returns (bool){\r\n        if (institutions[upi].upi.length == 0) {\r\n            return false;\r\n        }\r\n        return true;\r\n    }\r\n    //add an ECDE Record\r\n    function addECDECRecord(\r\n        bytes32 upi,\r\n        uint english,\r\n        uint kiswahili,\r\n        uint math,\r\n        bytes32 date,\r\n        bytes32 institution\r\n    ) public {\r\n        require(!isECDERecordExists(upi)) ;\r\n        ecdeRecords[upi] = ECDERecord(now, upi, english, kiswahili, math, date, institution, false);\r\n        emit AddedECDERecord(now, upi, english, kiswahili, math, date, institution);\r\n    }\r\n\r\n    //get an ECDE Record\r\n    function getECDERecord(bytes32 upi) public constant returns (uint, bytes32, uint, uint, uint, bytes32, bytes32){\r\n        require (isECDERecordExists(upi));\r\n        return (\r\n        ecdeRecords[upi].timestamp,\r\n        ecdeRecords[upi].upi,\r\n        ecdeRecords[upi].english,\r\n        ecdeRecords[upi].kiswahili,\r\n        ecdeRecords[upi].math,\r\n        ecdeRecords[upi].date,\r\n        ecdeRecords[upi].institution);\r\n\r\n    }\r\n    //is ECDE record exist\r\n    function isECDERecordExists(bytes32 upi) private constant returns (bool){\r\n        if (ecdeRecords[upi].upi.length == 0) {\r\n            return false;\r\n        }\r\n        return true;\r\n    }\r\n    //add a Primary School Record\r\n    function addPrimarySchoolRecord(\r\n        bytes32 upi,\r\n        uint english,\r\n        uint kiswahili,\r\n        uint math,\r\n        uint science,\r\n        uint socialStudies,\r\n        bytes32 date,\r\n        bytes32 institution\r\n\r\n    ) public {\r\n        require(!isPrimarySchoolRecordExists(upi)) ;\r\n        primarySchoolRecords[upi] = PrimarySchoolRecord(now, upi, english, kiswahili, math, science, socialStudies, date, institution, false);\r\n        emit AddedPrimarySchoolRecord(now, upi, english, kiswahili, math, science, socialStudies, date, institution);\r\n    }\r\n\r\n    //get a Primary School Record\r\n    function getPrimarySchoolInfo(bytes32 upi) public constant returns (uint, bytes32, bytes32, bytes32){\r\n        require (isPrimarySchoolRecordExists(upi));\r\n        return (\r\n        primarySchoolRecords[upi].timestamp,\r\n        primarySchoolRecords[upi].upi,\r\n        primarySchoolRecords[upi].date,\r\n        primarySchoolRecords[upi].institution);\r\n\r\n    }\r\n    //get primary school subjects\r\n    function getPrimarySchoolSubjects(bytes32 upi) public constant returns (uint, uint, uint, uint, uint){\r\n        require (isPrimarySchoolRecordExists(upi));\r\n        return (\r\n        primarySchoolRecords[upi].english,\r\n        primarySchoolRecords[upi].kiswahili,\r\n        primarySchoolRecords[upi].math,\r\n        primarySchoolRecords[upi].science,\r\n        primarySchoolRecords[upi].socialStudies\r\n        );\r\n\r\n    }\r\n    //is Primary school record exist\r\n    function isPrimarySchoolRecordExists(bytes32 upi) private constant returns (bool){\r\n        if (primarySchoolRecords[upi].upi.length == 0) {\r\n            return false;\r\n        }\r\n        return true;\r\n    }\r\n    //add Secondary school\r\n    function addSecondarySchoolRecord(\r\n        bytes32 upi,\r\n        uint english,\r\n        uint kiswahili,\r\n        uint math,\r\n        uint biology,\r\n        uint chemistry,\r\n        uint physics,\r\n        uint history,\r\n        uint geography,\r\n        uint religion,\r\n        uint business,\r\n        bytes32 date,\r\n        bytes32 institution\r\n    ) public {\r\n        require(!isSecondarySchoolRecordExists(upi)) ;\r\n        secondarySchools[upi] = SecondarySchoolRecord(\r\n            now,\r\n            upi,\r\n            english,\r\n            kiswahili,\r\n            math,\r\n            biology,\r\n            chemistry,\r\n            physics,\r\n            history,\r\n            geography,\r\n            religion,\r\n            business,\r\n            date,\r\n            institution,\r\n            false\r\n        );\r\n        emit AddedSecondarySchoolRecord(\r\n            now,\r\n            upi,\r\n            english,\r\n            kiswahili,\r\n            math,\r\n            biology,\r\n            chemistry,\r\n            physics,\r\n            history,\r\n            geography,\r\n            religion,\r\n            business,\r\n            date,\r\n            institution);\r\n    }\r\n\r\n\r\n    //get SecondarySchoolInfo\r\n    function getSecondarySchoolInfo(bytes32 upi) public constant returns (uint, bytes32, bytes32, bytes32){\r\n        require (isSecondarySchoolRecordExists(upi));\r\n        return (\r\n        secondarySchools[upi].timestamp,\r\n        secondarySchools[upi].upi,\r\n        secondarySchools[upi].date,\r\n        secondarySchools[upi].institution);\r\n    }\r\n    //get Humanities\r\n    function getHumanitites(bytes32 upi) public constant returns (uint, uint, uint){\r\n        require (isSecondarySchoolRecordExists(upi));\r\n        return (\r\n        secondarySchools[upi].history,\r\n        secondarySchools[upi].religion,\r\n        secondarySchools[upi].geography);\r\n    }\r\n    //get Core subjects\r\n    function getCoreSubjects(bytes32 upi) public constant returns (uint, uint, uint){\r\n        require (isSecondarySchoolRecordExists(upi));\r\n        return (\r\n        secondarySchools[upi].english,\r\n        secondarySchools[upi].kiswahili,\r\n        secondarySchools[upi].math);\r\n    }\r\n    //get sciences\r\n    function getSciences(bytes32 upi) public constant returns (uint, uint, uint){\r\n        require (isSecondarySchoolRecordExists(upi));\r\n        return (\r\n        secondarySchools[upi].biology,\r\n        secondarySchools[upi].chemistry,\r\n        secondarySchools[upi].physics);\r\n    }\r\n    //get electives\r\n    function getElectives(bytes32 upi) public constant returns (uint){\r\n        require (isSecondarySchoolRecordExists(upi));\r\n        return (\r\n        secondarySchools[upi].business);\r\n    }\r\n\r\n    //is Secondary schoool record exist\r\n    function isSecondarySchoolRecordExists(bytes32 upi) private constant returns (bool){\r\n        if (secondarySchools[upi].upi.length == 0) {\r\n            return false;\r\n        }\r\n        return true;\r\n    }\r\n    //add an Undergraduate record\r\n    function addUndergraduateRecord(\r\n        bytes32 upi,\r\n        bytes32 name,\r\n        bytes32 grade,\r\n        bytes32 date,\r\n        bytes32 institution\r\n    ) public {\r\n        require(!isUndergraduateRecordExists(upi)) ;\r\n        undergraduateRecords[upi] = UndergraduateRecord(now, upi, name, grade, date, institution);\r\n        emit AddedUndergraduateRecord(now, upi, name, grade, date, institution);\r\n    }\r\n    //get an Undergraduate record\r\n    function getUndergroundRecord(bytes32 upi) public constant returns (uint, bytes32, bytes32, bytes32, bytes32, bytes32){\r\n        require (isUndergraduateRecordExists(upi));\r\n        return (\r\n        undergraduateRecords[upi].timestamp,\r\n        undergraduateRecords[upi].upi,\r\n        undergraduateRecords[upi].name,\r\n        undergraduateRecords[upi].grade,\r\n        undergraduateRecords[upi].date,\r\n        undergraduateRecords[upi].institution);\r\n\r\n    }\r\n    //is Undergraduate record exist\r\n    function isUndergraduateRecordExists(bytes32 upi) private constant returns (bool){\r\n        if (undergraduateRecords[upi].upi.length == 0) {\r\n            return false;\r\n        }\r\n        return true;\r\n    }\r\n\r\n\r\n}\r\n",
  "sourcePath": "C:\\Users\\nahas\\Google Drive\\Code\\fourth-year-project\\contracts\\PublicRecords.sol",
  "compiler": {
    "name": "solc",
    "version": "0.4.23+commit.124ca40d.Emscripten.clang"
  },
  "schemaVersion": "2.0.0",
  "updatedAt": "2018-06-07T13:56:32.319Z"
}