{
  "contractName": "Todo",
  "abi": [
    {
      "constant": true,
      "inputs": [],
      "name": "owner",
      "outputs": [
        {
          "name": "",
          "type": "address"
        }
      ],
      "payable": false,
      "stateMutability": "view",
      "type": "function"
    },
    {
      "inputs": [],
      "payable": false,
      "stateMutability": "nonpayable",
      "type": "constructor"
    },
    {
      "anonymous": false,
      "inputs": [
        {
          "indexed": false,
          "name": "todoItem",
          "type": "string"
        }
      ],
      "name": "AddedTodoItem",
      "type": "event"
    },
    {
      "constant": false,
      "inputs": [],
      "name": "kill",
      "outputs": [],
      "payable": false,
      "stateMutability": "nonpayable",
      "type": "function"
    },
    {
      "constant": true,
      "inputs": [],
      "name": "getAddress",
      "outputs": [
        {
          "name": "",
          "type": "address"
        }
      ],
      "payable": false,
      "stateMutability": "view",
      "type": "function"
    },
    {
      "constant": false,
      "inputs": [
        {
          "name": "m",
          "type": "string"
        }
      ],
      "name": "addTodo",
      "outputs": [],
      "payable": false,
      "stateMutability": "nonpayable",
      "type": "function"
    },
    {
      "constant": true,
      "inputs": [],
      "name": "getInsertedTodo",
      "outputs": [
        {
          "name": "",
          "type": "string"
        },
        {
          "name": "",
          "type": "uint256"
        },
        {
          "name": "",
          "type": "bool"
        }
      ],
      "payable": false,
      "stateMutability": "view",
      "type": "function"
    },
    {
      "constant": false,
      "inputs": [
        {
          "name": "id",
          "type": "uint256"
        }
      ],
      "name": "deleteTodo",
      "outputs": [],
      "payable": false,
      "stateMutability": "nonpayable",
      "type": "function"
    },
    {
      "constant": false,
      "inputs": [],
      "name": "deleteInsertedTodo",
      "outputs": [],
      "payable": false,
      "stateMutability": "nonpayable",
      "type": "function"
    },
    {
      "constant": false,
      "inputs": [
        {
          "name": "id",
          "type": "uint256"
        }
      ],
      "name": "markTodoComplete",
      "outputs": [],
      "payable": false,
      "stateMutability": "nonpayable",
      "type": "function"
    },
    {
      "constant": false,
      "inputs": [
        {
          "name": "id",
          "type": "uint256"
        }
      ],
      "name": "markTodoInComplete",
      "outputs": [],
      "payable": false,
      "stateMutability": "nonpayable",
      "type": "function"
    },
    {
      "constant": false,
      "inputs": [
        {
          "name": "id",
          "type": "uint256"
        },
        {
          "name": "name",
          "type": "string"
        }
      ],
      "name": "editTodo",
      "outputs": [],
      "payable": false,
      "stateMutability": "nonpayable",
      "type": "function"
    },
    {
      "constant": true,
      "inputs": [],
      "name": "getNumberOfTodos",
      "outputs": [
        {
          "name": "",
          "type": "uint256"
        }
      ],
      "payable": false,
      "stateMutability": "view",
      "type": "function"
    },
    {
      "constant": true,
      "inputs": [
        {
          "name": "id",
          "type": "uint256"
        }
      ],
      "name": "getTodo",
      "outputs": [
        {
          "name": "",
          "type": "string"
        },
        {
          "name": "",
          "type": "uint256"
        },
        {
          "name": "",
          "type": "bool"
        }
      ],
      "payable": false,
      "stateMutability": "view",
      "type": "function"
    }
  ],
  "bytecode": "0x6080604052600060015534801561001557600080fd5b5060005433600160a060020a039081169116141561003b57600054600160a060020a0316ff5b6107b28061004a6000396000f3006080604052600436106100b95763ffffffff7c01000000000000000000000000000000000000000000000000000000006000350416630521df8181146100be57806338cc48311461015d57806341c0e1b51461019b578063437c3ea5146101b257806361b56bad146101ca5780636e3c6738146101e25780638da5cb5b146101fa578063901ee0b81461020f57806395ffebf51461026d578063b7cb7d90146102c6578063bec3ef45146102db578063dd68afb614610302575b600080fd5b3480156100ca57600080fd5b506100d361031a565b604051808060200184815260200183151515158152602001828103825285818151815260200191508051906020019080838360005b83811015610120578181015183820152602001610108565b50505050905090810190601f16801561014d5780820380516001836020036101000a031916815260200191505b5094505050505060405180910390f35b34801561016957600080fd5b506101726103dd565b6040805173ffffffffffffffffffffffffffffffffffffffff9092168252519081900360200190f35b3480156101a757600080fd5b506101b06103e2565b005b3480156101be57600080fd5b506101b06004356103fd565b3480156101d657600080fd5b506101b0600435610419565b3480156101ee57600080fd5b506101b0600435610438565b34801561020657600080fd5b50610172610467565b34801561021b57600080fd5b5060408051602060046024803582810135601f81018590048502860185019096528585526101b09583359536956044949193909101919081908401838280828437509497506104839650505050505050565b34801561027957600080fd5b506040805160206004803580820135601f81018490048402850184019095528484526101b09436949293602493928401919081908401838280828437509497506104a79650505050505050565b3480156102d257600080fd5b506101b06105ae565b3480156102e757600080fd5b506102f06105e3565b60408051918252519081900360200190f35b34801561030e57600080fd5b506100d36004356105e9565b600180546000199081016000908152600260208181526040808420808701548185015482548451601f9a821615610100029099011695909504978801849004840287018401909252868652606096949586959194929360ff90931692909185918301828280156103cb5780601f106103a0576101008083540402835291602001916103cb565b820191906000526020600020905b8154815290600101906020018083116103ae57829003601f168201915b50505050509250925092509250909192565b335b90565b60005473ffffffffffffffffffffffffffffffffffffffff16ff5b600090815260026020819052604090912001805460ff19169055565b600090815260026020819052604090912001805460ff19166001179055565b60008181526002602052604081209061045182826106a7565b5060006001820155600201805460ff1916905550565b60005473ffffffffffffffffffffffffffffffffffffffff1681565b600082815260026020908152604090912082516104a2928401906106ee565b505050565b6001805480820190915560408051606081018252838152426020808301919091526000828401819052848152600282529290922081518051929391926104f092849201906106ee565b5060208281015160018301556040928301516002909201805460ff191692151592909217909155815181815284518183015284517f430e30396dd597a21eea9c675a4c199d65d05e743f1266fd414e3f954fc777709386938392918301919085019080838360005b83811015610570578181015183820152602001610558565b50505050905090810190601f16801561059d5780820380516001836020036101000a031916815260200191505b509250505060405180910390a15050565b600154600019016000908152600260205260408120906105ce82826106a7565b5060006001820155600201805460ff19169055565b60015490565b600081815260026020818152604080842060018082015482860154835485516101009482161594909402600019011696909604601f81018690048602830186019094528382526060969586959394919360ff909116929185918301828280156106935780601f1061066857610100808354040283529160200191610693565b820191906000526020600020905b81548152906001019060200180831161067657829003601f168201915b505050505092509250925092509193909250565b50805460018160011615610100020316600290046000825580601f106106cd57506106eb565b601f0160209004906000526020600020908101906106eb919061076c565b50565b828054600181600116156101000203166002900490600052602060002090601f016020900481019282601f1061072f57805160ff191683800117855561075c565b8280016001018555821561075c579182015b8281111561075c578251825591602001919060010190610741565b5061076892915061076c565b5090565b6103df91905b8082111561076857600081556001016107725600a165627a7a72305820ec5e4397bcddcc986f473d4527643b23384931d6b3366d8c52faac0b7ec867430029",
  "source": "pragma solidity ^0.4.22;\r\n\r\ncontract Todo {\r\n    address public owner;\r\n    //declares the number of todoItems\r\n    uint numberOfTodoItems = 0;\r\n\r\n\r\n    //an event to know when a todoItem is added\r\n    event AddedTodoItem(string todoItem);\r\n\r\n    //struct to hold an todoItem\r\n    struct TodoItem {\r\n        string name;\r\n        uint createdAt;\r\n        bool complete;\r\n    }\r\n    //mapping to hold todoItems\r\n    mapping(uint => TodoItem) todoItems;\r\n\r\n    constructor() public {\r\n        if (msg.sender == owner) selfdestruct(owner);\r\n    }\r\n\r\n    function kill() public {\r\n        selfdestruct(owner);\r\n    }\r\n\r\n    function getAddress() public constant returns (address){\r\n        return msg.sender;\r\n    }\r\n    //add a TodoItem\r\n    function addTodo(string m) public {\r\n        uint todoItemId = numberOfTodoItems++;\r\n        todoItems[todoItemId] = TodoItem(m, now, false);\r\n        emit AddedTodoItem(m);\r\n\r\n    }\r\n\r\n    function getInsertedTodo() public constant returns (string, uint, bool){\r\n        return (todoItems[numberOfTodoItems - 1].name, todoItems[numberOfTodoItems - 1].createdAt, todoItems[numberOfTodoItems - 1].complete);\r\n    }\r\n\r\n    function deleteTodo(uint id) public {\r\n        delete todoItems[id];\r\n    }\r\n\r\n    function deleteInsertedTodo() public {\r\n        delete todoItems[numberOfTodoItems - 1];\r\n    }\r\n\r\n    function markTodoComplete(uint id) public {\r\n        todoItems[id].complete = true;\r\n    }\r\n\r\n    function markTodoInComplete(uint id) public {\r\n        todoItems[id].complete = false;\r\n    }\r\n\r\n    function editTodo(uint id, string name) public {\r\n        todoItems[id].name = name;\r\n    }\r\n\r\n    function getNumberOfTodos() public constant returns (uint){\r\n        return numberOfTodoItems;\r\n    }\r\n\r\n    //return todoItemId\r\n    function getTodo(uint id) public constant returns (string, uint, bool){\r\n        return (todoItems[id].name, todoItems[id].createdAt, todoItems[id].complete);\r\n    }\r\n\r\n}",
  "sourcePath": "C:\\Users\\nahas\\Google Drive\\Code\\fourth-year-project\\contracts\\Todo.sol",
  "compiler": {
    "name": "solc",
    "version": "0.4.23+commit.124ca40d.Emscripten.clang"
  },
  "schemaVersion": "2.0.0",
  "updatedAt": "2018-06-07T08:15:24.641Z"
}